:020000040800F2
:1000000038060020A14F0008A94F0008AB4F000898
:10001000AD4F0008AF4F0008B14F000800000000CE
:10002000000000000000000000000000B34F0008C6
:10003000B54F000800000000B74F0008B94F000896
:10004000BB4F0008BB4F0008BB4F00084B16000811
:10005000BB4F0008BB4F0008BB4F0008BB4F000858
:10006000BB4F0008BB4F0008BB4F0008BB4F000848
:10007000BB4F0008BB4F0008BB4F0008BB4F000838
:10008000BB4F0008BB4F0008BB4F0008BB4F000828
:10009000BB4F0008BB4F0008BB4F0008BB4F000818
:1000A000BB4F0008BB4F0008BB4F0008BB4F000808
:1000B000BB4F0008BB4F0008BB4F0008BB4F0008F8
:1000C000BB4F0008BB4F0008BB4F0008BB4F0008E8
:1000D000BB4F0008BB4F0008BB4F0008BB4F0008D8
:1000E000BB4F0008BB4F0008BB4F0008BB4F0008C8
:1000F000BB4F0008BB4F0008BB4F000800000000CA
:10010000BB4F000800000000BB4F0008BB4F0008B9
:100110005F0F0008BB4F0008BB4F0008BB4F000833
:10012000BB4F0008BB4F0008BB4F0008BB4F000887
:10013000BB4F0008BB4F0008BB4F0008BB4F000877
:10014000BB4F0008BB4F0008BB4F0008BB4F000867
:10015000DFF810D005F010FA0048004769010008E8
:10016000AFF300803806002000F038FF00F0FFFEFB
:1001700001F044FE01F0AEFE01F0A6FE01E001F048
:10018000E0FBFCE710B54FF48051FE4802F0CDFFD4
:1001900010BD10B54FF48051FA4802F0C4FF10BDF5
:1001A00070B505460E46FFF7F4FF4FF47A7000F085
:1001B0004FFF002410E000BF0721F34804F08DFE3C
:1001C0000028F9D0295DF04804F0C8FD295DEF480A
:1001D00004F0C4FD601CC4B2B442ECDB00BF0621D5
:1001E000E94804F07AFE0028F9D040F6B83000F073
:1001F0002FFFFFF7C7FF70BDE0B505460E46174657
:10020000182F11D1E248057001464E700020887009
:100210001820C87000200871087120128871CC71F4
:100220000821DB48FFF7BCFF192F11D1D848057012
:1002300001464E70002088701920C8700020087197
:10024000087120128871CC710821D148FFF7A8FFEE
:10025000E0BDF0B503460C464FF6FF71002210E0FA
:10026000985C4140012608E001F00107490817B1F8
:100270004AF201004140701CC6B2082EF4DD501C49
:10028000C2B2A242ECDB0D0A45EA012189B208465E
:10029000F0BD70B506460C4600F0C8FEBC490870BB
:1002A00006F1400048708C700321B948FFF7D1FF78
:1002B00005462812B649C8700D710521B448FFF7EC
:1002C0006FFF70BD2DE9F04107460E4615461C46EE
:1002D0000020B04908700EE0AE48007801F02FFC15
:1002E000AD4AAC4B1B7802EBC30203C2A9480078AD
:1002F000401CA8490870A74800780428ECDB01F0EE
:100300001BFCA6490880032E79D17D2C00D224B98C
:1003100003213046FFF7BDFFFAE3002000BFF8E3FA
:10032000014600EBD17205EB62029D4B1A609849C1
:100330000F700321964A51701946096820291CD173
:100340009549984A116011460968C91D1160114606
:1003500009680A78C11C8E4B5A5492490968491E93
:10036000904A1160114609680A78011D5A548D4956
:100370000968491E8B4A11600AE2894909682129E6
:100380001CD18549874A116011460968491D1160D1
:10039000114609680A78C11C7D4B5A548149096885
:1003A000491E804A1160114609680A78011D5A5495
:1003B0007C490968491E7B4A1160DDE77849096874
:1003C00022291DD17449774A116011460968C91C58
:1003D0001160114609680A78C11C6D4B5A54714965
:1003E0000968491E6F4A1160114609680A78011DA3
:1003F0005A546C490968491E6A4A1160BCE7EFE328
:100400006749096823291CD16349664A116011466E
:100410000968491C1160114609680A78C11C5C4BC7
:100420005A5460490968491E5E4A116011460968BC
:100430000A78011D5A545B490968491E594A1160DE
:100440009AE75749096824291DD153490831554A6B
:10045000116011460968C91D1160114609680A78C2
:10046000C11C4B4B5A544F490968491E4D4A1160F3
:10047000114609680A78011D5A544A490968491EFB
:10048000484A1160F5E34649096825291DD14249CA
:100490000831444A116011460968491D116011462E
:1004A00009680A78C11C3A4B5A543E490968491EEA
:1004B0003C4A1160114609680A78011D5A543949AD
:1004C0000968491E374A1160D3E33549096826296E
:1004D0001DD131490831334A116011460968C91CE0
:1004E0001160114609680A78C11C294B5A542D49DC
:1004F0000968491E2B4A1160114609680A78011DD6
:100500005A5428490968491E264A1160B1E3244912
:10051000096827291DD120490831224A1160114656
:100520000968491C1160114609680A78C11C184BFA
:100530005A541C490968491E1A4A11601146096833
:100540000A78011D5A5417490968491E154A116055
:100550008FE313490968282930D10F491031114A16
:10056000116011460968C91D1160114609680A78B1
:10057000C11C074B5A540B490968491E094A1160AE
:10058000114611E000100140004C004000380140CD
:10059000A000002030000020080100201C000020E6
:1005A0002C0000202000002009680A78011D5A5400
:1005B000FE490968491EFD4A11605AE3FC49096871
:1005C00029291CD1FB49F94A116011460968491DC6
:1005D0001160114609680A78C11CF74B5A54F34957
:1005E0000968491EF14A1160114609680A78011D1F
:1005F0005A54EE490968491EEC4A116039E3EC4946
:1006000009682A291CD1EB49E84A1160114609689A
:10061000C91C1160114609680A78C11CE64B5A547E
:10062000E2490968491EE14A1160114609680A78E1
:10063000011D5A54DD490968491EDC4A116018E35E
:10064000DB4909682B291CD1DA49D84A11601146C7
:100650000968491C1160114609680A78C11CD64B0B
:100660005A54D2490968491ED04A11601146096896
:100670000A78011D5A54CD490968491ECB4A1160B8
:10068000F7E2CB4909682C291DD1CA490831C74A6C
:10069000116011460968C91D1160114609680A7880
:1006A000C11CC54B5A54C1490968491EBF4A116053
:1006B000114609680A78011D5A54BC490968491E47
:1006C000BA4A1160D5E2BA4909682D291DD1B94944
:1006D0000831B64A116011460968491D116011467A
:1006E00009680A78C11CB44B5A54B0490968491EBC
:1006F000AE4A1160114609680A78011D5A54AB4987
:100700000968491EA94A1160B3E2A94909682E295E
:100710001DD1A8490831A54A116011460968C91CB4
:100720001160114609680A78C11CA34B5A549F49AD
:100730000968491E9D4A1160114609680A78011D21
:100740005A549A490968491E984A116091E2984999
:1007500009682F291DD197490831944A1160114623
:100760000968491C1160114609680A78C11C924B3E
:100770005A548E490968491E8C4A1160114609680D
:100780000A78011D5A5489490968491E874A11602F
:100790006FE28749096830291DD186491031834AA3
:1007A000116011460968C91D1160114609680A786F
:1007B000C11C814B5A547D490968491E7B4A11600E
:1007C000114609680A78011D5A5478490968491E7A
:1007D000764A11604DE27649096831291DD1754983
:1007E0001031724A116011460968491D11601146A5
:1007F00009680A78C11C704B5A546C490968491E33
:100800006A4A1160114609680A78011D5A546749FD
:100810000968491E654A11602BE265490968322959
:100820001DD164491031614A116011460968C91C23
:100830001160114609680A78C11C5F4B5A545B4924
:100840000968491E594A1160114609680A78011D54
:100850005A5456490968491E544A116009E25449DC
:10086000096833291DD153491031504A116011468E
:100870000968491C1160114609680A78C11C4E4B71
:100880005A544A490968491E484A11601146096884
:100890000A78011D5A5445490968491E434A1160A6
:1008A000E7E14349096834291DD1424918313F4ADB
:1008B000116011460968C91D1160114609680A785E
:1008C000C11C3D4B5A5439490968491E374A1160C9
:1008D000114609680A78011D5A5434490968491EAD
:1008E000324A1160C5E13249096835291DD13149C3
:1008F00018312E4A116011460968491D11601146D0
:1009000009680A78C11C2C4B5A5428490968491EA9
:10091000264A1160114609680A78011D5A54234974
:100920000968491E214A1160A3E121490968362955
:100930001DD1204918311D4A116011460968C91C92
:100940001160114609680A78C11C1B4B5A5417499B
:100950000968491E154A1160114609680A78011D87
:100960005A5412490968491E104A116081E1104920
:100970000968372926D10F4918310C4A11601146F0
:100980000968491C1160114609680A78C11C0A4BA4
:100990005A5406490968491E044A116011460968FB
:1009A0000A78011D5A540149096807E02000002017
:1009B0002C00002018010020A0000020491EFE4A43
:1009C000116056E1FD49096838291CD1FC49FA4AF1
:1009D000116011460968C91D1160114609680A783D
:1009E000C11CF84B5A54F4490968491EF24A116077
:1009F000114609680A78011D5A54EF490968491ED1
:100A0000ED4A116035E1ED49096839291CD1EC49FD
:100A1000E94A116011460968491D116011460968CB
:100A20000A78C11CE74B5A54E3490968491EE24A57
:100A30001160114609680A78011D5A54DE49096897
:100A4000491EDD4A116014E1DC4909683A291CD1CC
:100A5000DB49D94A116011460968C91C1160114669
:100A600009680A78C11CD74B5A54D3490968491EF2
:100A7000D14A1160114609680A78011D5A54CE49BD
:100A80000968491ECC4A1160F3E0CC4909683B294A
:100A90001CD1CB49C84A116011460968491C116034
:100AA000114609680A78C11CC64B5A54C2490968E4
:100AB000491EC14A1160114609680A78011D5A543D
:100AC000BD490968491EBC4A1160D2E0BB490968AA
:100AD0003C291FD1BA490831B74A1160114609684B
:100AE000C91D1160114609680A78C11CB54B5A54DA
:100AF000B1490968491EB04A1160114609680A786F
:100B0000011D5A54AC490968491EAB4A1160B0E056
:100B1000B5E0AFE0A94909683D291DD1A8490831D0
:100B2000A54A116011460968491D116011460968FE
:100B30000A78C11CA34B5A549F490968491E9E4A12
:100B40001160114609680A78011D5A549A490968CA
:100B5000491E994A11608CE0984909683E291DD1C7
:100B600097490831944A116011460968C91C1160FF
:100B7000114609680A78C11C924B5A548E4909687B
:100B8000491E8D4A1160114609680A78011D5A54A0
:100B900089490968491E884A11606AE087490968DD
:100BA0003F291ED186490831834A116011460968E0
:100BB000491C1160114609680A78C11C814B5A54BE
:100BC0007D490968491E7C4A1160114609680A7806
:100BD000011D5A5478490968491E774A116048E056
:100BE0006FE0182D07D10022C11C764B5A541822F1
:100BF000011D5A543DE0192D07D10022C11C714B33
:100C00005A541922011D5A5433E0702D07D1002285
:100C1000C11C6C4B5A547022011D5A5429E0712D8D
:100C200007D10022C11C674B5A547122011D5A542E
:100C30001FE0722D07D10022C11C624B5A54722250
:100C4000011D5A5415E0732D07D10022C11C5D4BC4
:100C50005A547322011D5A540BE0742D09D10022FD
:100C6000C11C584B5A545849097801F00301021D20
:100C70009954801CB0EB440FFFF452AB00BF6006E8
:100C8000000E50498870032000EB4400C1B24D486B
:100C9000FFF7DFFA4D49088008460088001203215B
:100CA00001EB4401474A505448480078042101EBC5
:100CB00044015054052000EB4400C1B21046FFF738
:100CC0006FFABDE8F08170B50A2000F0C1F9404824
:100CD000C0783F49897840EA01243D4840793C4941
:100CE000097940EA01253A484078032874D1192C43
:100CF0000BD9402C09D200F099F9C6B22B462246F6
:100D000003213046FFF7DEFABCE0702C17D101203A
:100D100000F092F9012000F095F901212D4802F030
:100D200002FA02212B4802F0FEF900F07FF9C6B268
:100D30002B46224603213046FFF7C4FAA2E0712C6D
:100D400017D1002000F078F9002000F07BF9012194
:100D5000204802F0EAF902211E4802F0E6F900F00C
:100D600065F9C6B22B46224603213046FFF7AAFAA0
:100D700088E0722C10D1012000F05EF901211548A5
:100D800002F0D1F900F052F9C6B22B4622460321F7
:100D90003046FFF797FA75E0732C22D1002000F05F
:100DA0004BF901210B4802F0C0F900F03FF9C6B23F
:100DB0002B462246032110E0200000202C000020BA
:100DC00038010020A00000201C0000202800002086
:100DD000D0000020001001400FE03046FFF772FA0B
:100DE00050E0742C4ED100F021F9C6B22B462246B9
:100DF00003213046FFF766FA44E06C484078062845
:100E000040D1182C1ED1694840796849097940EAD7
:100E1000012001280AD100F00FF900F007F9C6B24D
:100E2000182206213046FFF7E7F92BE0002000F0FA
:100E300003F900F0FBF8C6B2182206213046FFF78E
:100E4000DBF91FE0192C1DD1584840795749097921
:100E500040EA012001280AD100F0F4F800F0E6F899
:100E6000C6B2192206213046FFF7C6F90AE0002073
:100E700000F0E8F800F0DAF8C6B219220621304690
:100E8000FFF7BAF970BD30B505460C46A01EC1B2D9
:100E90002846FFF7DEF946490880601E295CA01E3F
:100EA000285C41EA002043490880414800880988BD
:100EB000884201D1012030BD0020FCE770B53E48DA
:100EC00003F050FF3D490870084601783C4800F0A7
:100ED000EBFB00BF0721384803F0FFFF0028F9D0E3
:100EE000374800F046FC3749086008460068082883
:100EF00034DB084600780838C2B23349304800F085
:100F000041FC00F093F830490978884226D100244A
:100F100000BF0EE02B48007808382044C2B22A49AE
:100F2000274800F02FFC2848007828490855601C05
:100F3000C4B2082CEEDB08212448FFF7A4FF60B1FF
:100F40001A48224D2ECD2EC000BF1F491C4800F06C
:100F5000DEFB0028F9D1FFF7B6FE00BF70BD10B56B
:100F60000521154803F0C8FFFFF7A8FF10BD10B515
:100F700000F017F9FFF706F900214FF0006002F0CA
:100F800016FA4FF4A06002F0B3F9002211463420A3
:100F900002F0B3F901210E4802F0C7F802210C4813
:100FA00002F0C3F8064800F06BFB10BDD000002033
:100FB0000C0000200E000020004C00400600002025
:100FC000E00000201400002010000020C0000020DD
:100FD00000100140432030490860704710B500F010
:100FE00069F800F06EF900F030F900F04CF900F00B
:100FF000E6FA00F0FDFA00F0B7FA00F003FAFFF7A6
:10100000E9FF10BD10B5002400F052F82349086034
:1010100000BF07E02148006830F81400204921F89B
:101020001400641C042CF5DB1D4810BD1A48006830
:1010300070471949086070471A4908707047194885
:101040000078704718490870704717480078704753
:10105000164A126891B200BF144A1268521A92B22C
:101060008242F9DD704770B506460EE001F05CFF84
:10107000002408E0002501E0681C85B2B5F58E7FEC
:10108000FADD601C84B2022CF4DB301EA6F10101F3
:101090008EB2EBD170BD0000340000204000002073
:1010A000440000203C0000203D00002024080040B7
:1010B000FE48704710B502F04CFB102002F0F2FC25
:1010C000002002F0D3FC00BF012002F09FFA0028AC
:1010D000FAD0002002F0DCFB002002F0EBFB4FF422
:1010E000806002F0DEFB4FF48011002002F0F4FB80
:1010F000182002F0BBFC00BF192002F087FA00287C
:10110000FAD0022002F0B6FB00BF02F0BCFB0828B8
:10111000FBD1002002F017FC40F2047002F048FB03
:1011200040F2037002F044FB40F2027002F040FB18
:1011300040F2017002F03CFB4FF4E06002F038FB3B
:1011400040F20B6002F034FB40F2127002F030FB10
:1011500040F2137002F02CFB40F20E6002F028FB0C
:1011600040F2117002F024FB40F2026002F020FB1A
:1011700040F2036002F01CFB40F2046002F018FB36
:101180004FF4C06002F014FB40F20A6002F010FB62
:1011900040F2096002F00CFB4FF4A06002F008FB83
:1011A00010BD10B54FF4E131C14803F061FD0021DD
:1011B000BF4803F0A9FD0021BD4803F0ADFD0021AB
:1011C000BB4803F099FD0021B94803F066FE0021F9
:1011D000B74803F06AFE0421B54803F0B7FD0821C3
:1011E000B34803F0ABFDB24803F09EFDB14803F0F5
:1011F000FBFC4FF49641AF4803F03AFD4FF48051A9
:10120000AC4803F081FD0021AA4803F085FD4FF4AE
:101210008061A84803F070FD0021A64803F03DFE60
:101220000021A44803F041FE0421A24803F08EFDF2
:101230000821A04803F082FD40F205319D4803F0EB
:1012400068FE9C4803F070FD10BD1FB545F6BF5009
:1012500002900020ADF80000ADF80C00ADF80400DD
:101260006946954802F05EFE934802F0BBFE0421F9
:10127000914802F001FF01218F4803F092FC8E4853
:1012800002F0A6FE1FBD1FB54BF67F300290002076
:10129000ADF80000ADF80C00ADF8040069468748D1
:1012A00002F040FE854802F09DFE0421834802F0D2
:1012B000E3FE0121814803F074FC804802F088FEBF
:1012C0001FBD10B501217E4801F050FF012303220C
:1012D00010217C4801F0D1FE02230322102179481D
:1012E00001F0CBFE042303221021764801F0C5FE55
:1012F000082303221021734801F0BFFE01230322BB
:101300000021714801F0B9FE0223032200216E483A
:1013100001F0B3FE0423032200216B4801F0ADFE6F
:10132000082303220021684801F0A7FE10230322AE
:101330000021654801F0A1FE20230322002162481C
:1013400001F09BFE4023032200215F4801F095FE3F
:101350008023032200215C4801F08FFE4FF480536C
:1013600003221021574801F088FE4FF40063032246
:101370004821544801F081FE4FF480630322182174
:10138000504801F07AFE2023032210214D4801F03D
:1013900074FE0123032210214C4801F06EFE02234B
:1013A00003221021494801F068FE802303224821CE
:1013B000464801F062FE402303221821434801F011
:1013C0005CFE0121042001F0D1FE4FF48053032282
:1013D00010213D4801F051FE4FF4006303224821E3
:1013E000394801F04AFE4FF40043032204213748F4
:1013F00001F043FE4FF4804303220421334801F0FF
:101400003CFE10BD10B5002000F0C2FE01220221FA
:101410002F4800F0C8FE012202212E4800F0C3FE32
:10142000012211022A4800F0BEFE012211022948C1
:1014300000F0B9FE0021264800F0E2FE0021254818
:1014400000F0DEFE08220121214800F049FF0021C2
:10145000204800F0D5FE00211D4800F0D1FE0822F2
:1014600001211C4800F03CFF0523002211461848CA
:1014700000F059FF052301221146154800F053FFE3
:10148000052302221146124800F04DFF05230322D6
:1014900011460F4800F047FF0523042211460C486F
:1014A00000F041FF05231A46194615E04C000020C4
:1014B00000380140004C004000080040000C004093
:1014C000300014000010014000080140000C0140F1
:1014D0000024014000280140644800F024FF052357
:1014E00006221146614800F01EFF0523072211461F
:1014F0005E4800F018FF4FF4602201215B4800F0C5
:10150000B6FF4FF460220121594800F0B0FF0122DC
:101510001146564800F0C3FF01221146544800F01E
:10152000BEFF524800F077FE514800F074FE4FF4C1
:101530007A70FFF78DFD4D4800F07BFE4C4800F0BF
:1015400078FE4A4800F09CFE494800F099FE0121CF
:10155000464800F0C3FF0121454800F0BFFF4FF4AB
:101560007A70FFF775FD10BD00B587B000214148C6
:1015700001F069F93D484C30009000208DF81800CA
:101580003D48029001208DF8190000020190800072
:10159000039000208DF81A00082004908002059026
:1015A0006A460021334801F091F90021314801F0E9
:1015B00024FA00212F4801F084FA07B000BD10B5CD
:1015C00000214FF0006001F0F2FE4FF4A06001F046
:1015D0008FFE00221146342001F08FFE4FF4C060D0
:1015E00001F086FE00220121032001F086FE10BDDD
:1015F00010B540F21B7002F0DBF840F21C7002F0F4
:10160000D7F801F0C8FF01F04DF84FF4106002F078
:101610002DFA4FF4106002F008F84FF4007002F059
:10162000BBF940F60F0002F0C3F802F0A6FB02F08F
:101630009CFB012002F0EFFB02F097FB49F64040D3
:1016400002F084FB02F091FB10BD10B5012002F006
:10165000C4FB10B1012002F0C9FB08480068401C1F
:101660000649086000F04FFB10BD00000024014057
:1016700000280140000002404C00002054000020DF
:10168000002180F8201080F821107047014691F861
:10169000210091F82020801A00F01F001F2801D19E
:1016A000012070470020FCE710B503460C461846A1
:1016B000FFF7ECFF30B193F82000401C00F01F0052
:1016C00083F8200093F821001C5493F82100401C5B
:1016D00000F01F0083F8210010BDF0B507460D464D
:1016E0001646002405E0295D3846FFF7DDFF601C43
:1016F000C4B2B442F7DBF0BD014691F8210091F885
:101700002020904201D1012070470020FCE710B555
:1017100003460C461846FFF7EFFF08B1002010BD46
:1017200093F82000185C207093F82000401C00F013
:101730001F0083F820000120F1E72DE9F0418046E9
:101740000D4616462F4600244046FFF7D5FF10B140
:101750000020BDE8F08102E0601CC4B27F1CB442EE
:1017600005DA39464046FFF7D2FF0028F4D120467B
:10177000EFE7014691F8210091F82020801A00F04F
:101780001F00704770B503460D46144693F82000BD
:10179000204400F01F061846FFF7EBFFA04201DCD3
:1017A000002070BD985D28700120FAE72DE9F04710
:1017B000FFF728FCE54908600020E5490870A4E02F
:1017C000E2480068E249097830F81100E149E04A4E
:1017D000127821F812000846DD49097830F8110026
:1017E00010B90020BDE8F087DA49D94A127831F8FB
:1017F000120003F02EFD064632460B460020D64965
:1018000003F0B8FC04460022D44B03F0ADFC804644
:1018100042460B460020D24903F0ACFCD14ACC4BE7
:101820001B7802EBC30203C2CE48C949097800EB1A
:10183000C1000022CC4BD0E90061304603F09AFC95
:10184000044604F085FBC94AC14B1B7802EBC30276
:1018500003C2C648BE49097800EBC1000022C44B50
:10186000D0E90041204603F085FCC04AB84B1B7804
:1018700002EBC30203C2BD48B549097800EBC100C1
:10188000BC4ABD4BD0E90041204603F0CCFBB74A2F
:10189000AF4B1B7802EBC30203C2B448AC490978D2
:1018A00000EBC100D0E9004322460020AB4903F021
:1018B00061FCAE4AA64B1B7802EBC30203C2AB48E5
:1018C000A349097800EBC101D1E900414FF066322C
:1018D000AA4B204603F048FCA94A9D4B1B7802EB1B
:1018E000C30203C2A6489A49097800EBC100D0E9B7
:1018F0000010A44A964B1B7802EBC302C2E9001009
:1019000093480078401C9249087091480078042858
:10191000FFF656AF9B4865E770B504460D460026B6
:101920000022994B2046294603F0B8FC07D200223A
:10193000964B2046294603F099FC00D201263046FA
:1019400070BD2DE9F041FFF731FF9149086000209B
:101950009049087029E08E4800688E49097800EBAC
:10196000C10103C98C4A8B4B1B7802EBC30203C233
:1019700089488849097800EBC100D0E900438748CD
:101980008449097800EBC1002246D0E90061304665
:1019900003F049FB814A7F4B1B7802EBC30203C271
:1019A0007C480078401C7B4908707A4800780428FD
:1019B000D1DB7B480078401C7949087008460078E4
:1019C00064287DD10020734908702CE07348714968
:1019D000097800EBC1000022724BD0E9004120469B
:1019E00003F0C8FB6D4A6B4B1B7802EBC30203C2CA
:1019F0006A486849097800EBC100D0E900106A4ADA
:101A0000644B1B7802EBC302C2E900100021634A59
:101A1000604B1B7802EBC302116051605D48007897
:101A2000401C5C4908705B4800780428CEDB5E48A7
:101A3000D0E900211046FFF76FFF01282ED15B4847
:101A4000007800F002005949088057480022584B9E
:101A5000D0E90041204603F009FC0DD9524800228C
:101A6000544BD0E90041204603F000FC0DD8022180
:101A7000514801F063FB40B101214F4801F053FB95
:101A800002214D4801F04FFB16E001214A4801F0C8
:101A90004CFB0221484801F048FB0DE0012146487B
:101AA00001F043FB0221444801F03FFB3F4800881E
:101AB00040F001003D4908803B49D1E9022100E0A6
:101AC00038E01046FFF728FF012826D13748007874
:101AD00000F001003549088033480022374BD0E937
:101AE0000241204603F0DAFB0DD32F480022344B8D
:101AF000D0E90241204603F0D1FB09D804212E4849
:101B000001F01CFB20B104212B4801F00CFB0EE07E
:101B10000421294801F009FB09E00421264801F0CD
:101B200004FB2248008840F0020020490880002081
:101B30001B490870BDE8F0811C48008870470246C8
:101B4000194800EBC20103C970470000640000207F
:101B5000710000205A00002000FEAF400000F03F5E
:101B600000FAB940480100200088C3406801002005
:101B70000031B04083DBB5DCE1796B3F6612714028
:101B8000880100202801002000004EC000C06240F3
:101B90006C00002072000020A8010020C801002075
:101BA0007000002000005940E8010020680000207B
:101BB0000000144000002440001001400080464016
:101BC0000080454010B50446C4F3C00020B1402158
:101BD000F14801F0A8FA03E04021EF4801F0A5FA2E
:101BE000C4F3800028B14FF48051EC4801F09BFA17
:101BF00004E04FF48051E94801F097FAC4F3400043
:101C000028B14FF40061E54801F08DFA04E04FF48B
:101C10000061E24801F089FA04F0010020B12021BE
:101C2000DE4801F080FA03E02021DC4801F07DFA73
:101C30006420FFF718FA4FF48071D84801F073FA66
:101C40006420FFF710FA4FF48071D44801F06DFA68
:101C500010BD10B504462011FFF7B4FF04F00F00CB
:101C6000FFF7B0FF10BD70B505460C464FF400718C
:101C7000CA4801F05AFACA48005D2844C9490870A8
:101C800008460078FFF7E5FF4FF40071C34801F004
:101C90004AFA601CC449087070BD10B504464FF480
:101CA0000071BE4801F03FFA40F6C410FFF7D0F9CA
:101CB000C02C06DBA4F1C001BC4A505CFFF7C9FF91
:101CC00002E02046FFF7C5FFB6480078401CB54942
:101CD000087008460078102804D090280CD0D0282E
:101CE0000FD104E001210020FFF7BDFF09E0002132
:101CF0000846FFF7B8FF04E001210020FFF7B3FF1B
:101D000000BF00BF10BD70B50020A94908700EE0EB
:101D1000A7480078FFF713FFA64AA54B1B7802EBF4
:101D2000C30203C2A2480078401CA1490870A04821
:101D300000780428ECDB00209F4908600846017801
:101D40000220FFF790FF9D4909783031C8B2FFF7B4
:101D5000A4FF3A20FFF7A1FF994828B196480178DF
:101D60000920FFF780FF04E0934801780820FFF77F
:101D70007AFF90489149096800EBC100D0E900431F
:101D8000224690A18E4803F009FC8B480068401C55
:101D900089490860084601780220FFF764FF8749F7
:101DA00009783131C8B2FFF778FF3A20FFF775FFA5
:101DB000834828B1804801780920FFF754FF04E0E8
:101DC0007D4801780820FFF74EFF7A497B4800687C
:101DD000401C01EBC000D0E90043224679A17848BD
:101DE00003F0DCFB75480068801C744908600846F5
:101DF0000068082801DB0020086070BD10B540F2C3
:101E0000036001F0D5FC40F2046001F0D1FC4FF416
:101E1000807303221021614801F02FF94FF4C15360
:101E2000032210215D4801F028F94FF400730322CA
:101E300010215A4801F021F940230322102156486D
:101E400001F01BF910BD10B504462011FFF7BAFED2
:101E500010BD10B504464FF40071504801F065F90B
:101E6000601E4F49085C4F49087008460078FFF72C
:101E7000F0FE4FF40071494801F055F9002049493E
:101E800008704948047010BD10B54FF40071434804
:101E900001F04BF90120FFF7DCFE3220FFF7E3F8F9
:101EA0004FF400713D4801F03EF90120FFF7D1FFEA
:101EB00010BD10B5044603E014F8010BFFF7EDFE6A
:101EC00020780028F8D110BD10B500210846FFF792
:101ED000CAFE10BD10B53220FFF7C5F84FF480716F
:101EE0002E4801F022F90F20FFF7BDF84FF40071E2
:101EF0002A4801F01AF93820FFF7A5FF0720FFF75D
:101F0000B2F83820FFF79FFF0120FFF7ACF8382028
:101F1000FFF799FF0120FFF7A6F82820FFF793FFAE
:101F20000120FFF7A0F82920FFF793FE0720FFF715
:101F30009AF81420FFF78DFE0720FFF794F8712020
:101F4000FFF787FE0720FFF78EF85D20FFF781FE81
:101F50000720FFF788F86C20FFF77BFE0720FFF7CC
:101F600082F80820FFF775FE0720FFF77CF80C20A9
:101F7000FFF76FFE0720FFF776F80620FFF769FEF0
:101F80000720FFF770F84FF40071044801F0CBF818
:101F9000FFF77AFF10BD000000100140000C014067
:101FA000AC6200087400002075000020B0620008D8
:101FB00098000020080200209400002090000020DB
:101FC0008500002025332E3166000000002000210E
:101FD0005A4A126842F00102584B1A6000BF401C76
:101FE000564A126802F0020111B9B0F5A06FF6D19D
:101FF000524A126802F002020AB900BFFEE74F4AD5
:1020000052684E4B5A601A4652685A601A465268D5
:1020100042F480625A601A465268494B1A40474B54
:102020005A601A46526842F420125A601A461268E0
:1020300042F080721A6000BF404A126802F00072DB
:10204000002AF9D03D4A526822F003023B4B5A6005
:102050001A46526842F002025A6000BF374A52687C
:1020600002F00C02082AF9D1704710B5FFF7AEFF55
:1020700010BD08B53148006840F001002F490860E4
:1020800000BF2E48006800F002000028F9D000BF11
:102090002A48406840F080002849486000200090AD
:1020A00002E00098401C009000985028F9D3234883
:1020B000406840F09000214948600020009002E014
:1020C0000098401C009000985028F9D300BF1B488E
:1020D000406820F003001949486008460068194923
:1020E00008401649086008464068174908401349E7
:1020F00048600846006813490840104908600846CF
:10210000006820F480200860084640680F490840B5
:102110000A4948600020C862084600680C49084027
:10212000064908604FF47F008860FFF79EFF00219A
:102130004FF0006001F03BF908BD000000100240C4
:10214000FFFFC3DFFFFFF6FE0C00FFE0FFFF00DF35
:10215000FFFFF6EA10B50446F748204418B1B0F581
:10216000806F12D108E040F2093001F059FB40F2D3
:10217000093001F063FB09E040F20A3001F050FB46
:1021800040F20A3001F05AFB00E000BF00BF10BD72
:10219000EA49096821F47021E84A1160114609688A
:1021A000014311607047AAB101F480731BB1436809
:1021B00043F48073436001F480631BB1436843F4CC
:1021C0008063436001F00203CBB1836843F00203F4
:1021D000836014E001F480731BB1436823F48073BF
:1021E000436001F480631BB1436823F48063436060
:1021F00001F002031BB1836823F002038360704780
:1022000021B1826842F40062826003E0826822F4B5
:10221000006282607047816801F0010119B981682C
:1022200041F0010181607047816821F00101816006
:102230007047816841F00801816000BF816801F04A
:1022400008010029FAD1816841F00401816000BFD2
:10225000816801F004010029FAD17047B748001DD8
:10226000006840F40000B549091D08607047B34894
:10227000001D006820F40000B049091D0860704787
:10228000816841F4807181607047816821F48071B8
:102290008160704730B5436823F4C053436001291F
:1022A00004D0022913D0042916D116E0436823F480
:1022B000604343604368541E4FF4604505EA44346C
:1022C00023434360436843F40063436006E043688C
:1022D00043F48053436001E000BF00BF00BF30BD46
:1022E00030B5012902D002291AD10CE0C36A23F4C7
:1022F0007003C362C36A541E4FF4700505EA0454A8
:102300002343C3620DE0836B23F440138363836B29
:10231000541E4FF4401505EA04542343836300E040
:1023200000BF00BF30BDF0B51D4606290CDA436B77
:1023300001EB81071F26BE40B34301EB810602FA81
:1023400006F63343436322E00C290EDA036B8E1F3B
:1023500006EB86071F26BE40B3438E1F06EB86069C
:1023600002FA06F63343036311E010290FDAC36A59
:10237000A1F10C0606EB86071F26BE40B343A1F170
:102380000C0606EB860602FA06F63343C3620A2AF7
:102390000CDA046902EB42070726BE40B44302EBA5
:1023A000420605FA06F63443046111E0122A0FDAF8
:1023B000C468A2F10A0606EB46070726BE40B443EE
:1023C000A2F10A0606EB460605FA06F63443C46097
:1023D000F0BDF0B50C46876BC7F30156856B371B14
:1023E00007EB8707C7F10F0C1F2707FA0CF7BD4350
:1023F000371B07EB8707C7F10F0702FA07F73D43C3
:1024000085630A2A0DDA016902EB420C072707FAF5
:102410000CF7B94302EB420703FA07F739430161AE
:1024200012E0122A10DAC168A2F10A0707EB470C82
:10243000072707FA0CF7B943A2F10A0707EB47078A
:1024400003FA07F73943C160F0BD70B50B460021B0
:10245000856BC5F30154E51AC5F10301032905D8BD
:102460008900C2F30B0600F114056E5070BD0129FE
:1024700002D0022910D107E0836823F4602383602F
:1024800083681343836008E0836823F4E043836038
:1024900083681343836000E000BF00BF704772B1E0
:1024A00001F001031BB1836843F48013836001F0E2
:1024B000020393B1836843F4004383600DE001F0AD
:1024C00001031BB1836823F48013836001F00203CE
:1024D0001BB1836823F400438360704701F001025D
:1024E0001AB1826842F48002826001F002021AB1DD
:1024F000826842F40012826070470146C86C80B264
:10250000704702460B4633B1012B06D0022B06D092
:10251000032B08D105E0D16B07E0116C05E0516C8D
:1025200003E0916C01E0002100BF00BF88B270475A
:10253000024848300068704700DCFEBF04240140B8
:102540004268564B1A40426042680A434260426801
:10255000534B1A43426070474268504B1F331A4036
:102560004260012904D0022907D003290FD109E0D4
:10257000426842F4000242600AE0426842F480028B
:10258000426005E0426842F44002426000E000BF61
:1025900000BF70474168414A114041607047C1F334
:1025A0000B038362C2F30B034362704702460020B1
:1025B00013680B4003B10120704702688A43026030
:1025C0007047014600208A6802F4800202B10120AF
:1025D0007047014600208A6802F4001202B101200F
:1025E000704710B502460B460020012B04D0022B89
:1025F0000CD0042B1ED113E0146804F001015468C0
:1026000004F040040CB101B1012014E0146804F09E
:102610000201546804F020040CB101B101200AE069
:10262000146804F00401546804F080040CB101B192
:10263000012000E000BF00BF10BD02688A430260B5
:10264000704701F001021AB1426842F04002426054
:1026500001F002021AB1426842F02002426001F029
:1026600004021AB1426842F080024260704701F0F1
:1026700001021AB1426822F04002426001F00202F7
:102680001AB1426822F02002426001F004021AB13D
:10269000426822F08002426070470000E0FD3FFF88
:1026A0000002C00010B501F0D7F801F0DCF810BD51
:1026B0000B2809DB2A2807DCA0F10B025B4B03EB9C
:1026C0008202A2F8401C09E0012807DB0A2805DC89
:1026D000421E564B03EB8202A2F8041C70470146CF
:1026E00000200B2909DB2A2907DCA1F10B024F4B43
:1026F00003EB8202B2F8400C09E0012907DB0A294A
:1027000005DC4A1E494B03EB8202B2F8040C704709
:102710004748008840F08000454908807047444899
:1027200000884FF67F710840414908807047404853
:10273000008840F480703E49088070473C4800881B
:102740004FF6FF6108403A49088070470146002073
:10275000374A10884FF6FF5210400843344A108021
:1027600070470146324A10884FF68072104001F0DF
:102770007F0210432E4A108070472D48001D0088AC
:1027800040F001002A49091D088070472848001DB3
:1027900000884FF6FE7108402549091D08807047E2
:1027A00001460020224A121D10884FF6FD7210408B
:1027B00008431F4A121D108070471D4808300088CA
:1027C00040F004001A490831088070471848083062
:1027D00000884FF6FB7108401549083108807047A2
:1027E00013480830008800F4807008B10120704759
:1027F0000020FCE70E480830008840F001000C493A
:102800000831088070470A480830008800F40070DA
:1028100008B1012070470020FCE705480830008817
:1028200040F0020002490831088070470060004013
:102830002C6C004002460120FC4B9A4202D1042934
:1028400000DD0020704770B504460D46294620463D
:10285000FFF7F0FF08B900BFFEE705EB8500810038
:1028600004F10800405820F0010105EB85008200CA
:1028700004F108008150002105EB8500820004F17D
:102880000800815005EB8500820004F10C008150A6
:1028900005EB8500820004F11000815005EB8500F6
:1028A000820004F1140081506068AA000F21914059
:1028B0000843606070BD0021016041600176816065
:1028C000C160417601618176416170472DE9F04137
:1028D00004460D46164629462046FFF7ABFF08B9C9
:1028E00000BFFEE705EB8500820004F110003168AF
:1028F000815005EB8500820004F11400B16881501D
:10290000308A81B205EB8500820004F10C00815011
:1029100005EB8500810004F10800475827F47C5737
:10292000F1687068084371690843074305EB850047
:10293000810004F108004750307E01280ED105EBDC
:102940008500810004F10800405840F0400105EB8B
:102950008500820004F1080081500DE005EB850040
:10296000810004F10800405820F0400105EB85008B
:10297000820004F108008150707E01280ED105EB21
:102980008500810004F10800405840F0800105EB0B
:102990008500820004F1080081500DE005EB850000
:1029A000810004F10800405820F0800105EB85000B
:1029B000820004F108008150B07E70B905EB8500FB
:1029C000810004F10800405820F0100105EB85005B
:1029D000820004F1080081500DE005EB85008100C4
:1029E00004F10800405840F0100105EB850082001A
:1029F00004F108008150BDE8F08170B505460C4631
:102A000021462846FFF716FF08B900BFFEE704EB92
:102A10008400810005F10800405840F0200104EBDB
:102A20008400820005F10800815070BD70B5054634
:102A30000C4621462846FFF7FDFE08B900BFFEE719
:102A400004EB8400810005F10800405820F02001CB
:102A500004EB8400820005F10800815070BD70B560
:102A600005460C4621462846FFF7E4FE08B900BF9C
:102A7000FEE704EB8400810005F10800405840F4B3
:102A8000804104EB8400820005F10800815070BD94
:102A900070B505460C4621462846FFF7CBFE08B91F
:102AA00000BFFEE704EB8400810005F108004058F8
:102AB00020F4804104EB8400820005F1080081507D
:102AC00070BD70B505460C4621462846FFF7B2FE9C
:102AD00008B900BFFEE704EB8400810005F108009F
:102AE000405840F0010104EB8400820005F1080029
:102AF000815070BD70B505460C4621462846FFF74B
:102B000099FE08B900BFFEE704EB8400810005F1DF
:102B10000800405820F0010104EB8400820005F118
:102B20000800815070BD70B506460C46154621461A
:102B30003046FFF77FFE08B900BFFEE704EB8400D4
:102B4000810006F11000455070BD70B506460C4678
:102B5000154621463046FFF76DFE08B900BFFEE777
:102B600004EB8400810006F11400455070BD70B57F
:102B700006460C46154621463046FFF75BFE08B96F
:102B800000BFFEE7A9B204EB8400820006F10C004E
:102B9000815070BD70B505460C4621462846FFF7AA
:102BA00049FE08B900BFFEE704EB8400810005F18F
:102BB0000C00405870BD2DE9F04104460D46174603
:102BC00029462046FFF736FE08B900BFFEE705EBB1
:102BD0008500810004F10800465826F440563E4323
:102BE00005EB8500810004F108004650BDE8F08146
:102BF0002DE9F04104460D46174629462046FFF7C9
:102C000019FE08B900BFFEE705EB8500810004F15D
:102C10000800465826F440663E4305EB85008100D7
:102C200004F108004650BDE8F081000000040240B5
:102C30002DE9F04104460D46174629462046FFF788
:102C4000F9FD08B900BFFEE705EB8500810004F13E
:102C50000800465826F440763E4305EB8500810087
:102C600004F108004650BDE8F08170B505460C46F9
:102C700021462846FFF7DEFD08B900BFFEE704EB5A
:102C80008400810005F10800405840F0800104EB09
:102C90008400820005F10800815070BD70B50546C2
:102CA0000C4621462846FFF7C5FD08B900BFFEE7E0
:102CB00004EB8400810005F10800405820F08001F9
:102CC00004EB8400820005F10800815070BD70B5EE
:102CD00005460C4621462846FFF7ACFD08B900BF63
:102CE000FEE704EB8400810005F10800405840F045
:102CF000400104EB8400820005F10800815070BDA2
:102D000070B505460C4621462846FFF793FD08B9E5
:102D100000BFFEE704EB8400810005F10800405885
:102D200020F0400104EB8400820005F1080081508E
:102D300070BD70B504460D46164629462046FFF77D
:102D400079FD08B900BFFEE776B905EB8500810083
:102D500004F10800405820F0100105EB85008200C6
:102D600004F1080081500DE005EB8500810004F1BD
:102D70000800405840F0100105EB8500820004F186
:102D80000800815070BD30B503461C688D0002FA02
:102D900005F52C400CB1012000E0002030BD10B53D
:102DA00043688C0002FA04F42343436010BD70B5FD
:102DB000034600BF00BF022A04D0042A11D0082A0B
:102DC0002DD11DE018688E0002FA06F600EA06050D
:102DD00001EB8100860003F10800805900F0020435
:102DE0001FE018688E0002FA06F600EA060501EBFD
:102DF0008100860003F10800805900F0040410E00F
:102E000018688E0002FA06F600EA060501EB81005A
:102E1000860003F10800805900F0080401E000BFBB
:102E2000FEE700BF15B10CB1012070BD0020FCE72A
:102E300010B543688C0002FA04F42343436010BDCC
:102E400070B504460D46164629462046FFF7F2FCAB
:102E500008B900BFFEE705EB8500810004F108001A
:102E60004058304305EB85018A0004F10801885081
:102E700070BD70B504460D46164629462046FFF73C
:102E8000D9FC08B900BFFEE705EB8500810004F11D
:102E900008004058B04305EB85018A0004F10801A1
:102EA000885070BD45F255503E490860704700207B
:102EB0003C49086070474CF6CC403A49086070477E
:102EC00010B50146384B002245F25550354C206074
:102ED00000BF3448C06800F00102581E031E01D034
:102EE000002AF6D10AB1002010BD2E484160012011
:102EF000FAE710B501462C4B002245F25550294CFB
:102F0000206000BF2748C06800F00202581E031E60
:102F100001D0002AF6D10AB1002010BDC1F30B0088
:102F2000204CA0600120F8E74AF6AA201D4908605D
:102F3000704730B502460B461B4C002145F25550F8
:102F4000184D286000BF1748C06800F00101601EDE
:102F5000041E01D00029F6D109B1002030BD11486E
:102F60004360114C00BF0F48C06800F00201601EB2
:102F7000041E01D00029F6D109B10020EEE7C2F30A
:102F80000B00084DA8604AF6AA2028600120E5E75A
:102F900001460448C068084008B10120704700207D
:102FA000FCE7000000300040FFFF0F0010B50446B2
:102FB000CC49601A8C422FD009DCCB48204480B128
:102FC000B0F5806F16D0B0F5006F49D11BE0B0F5B9
:102FD000806F2AD0B0F5006F30D0B0F5406F3FD190
:102FE00035E040F2023000F01BFC40F2023000F00D
:102FF00025FC36E040F2033000F012FC40F20330D2
:1030000000F01CFC2DE04FF4417000F009FC4FF47F
:10301000417000F013FC24E040F2053000F000FCA9
:1030200040F2053000F00AFC1BE040F2063000F0F0
:10303000F7FB40F2063000F001FC12E040F20730EE
:1030400000F0EEFB40F2073000F0F8FB09E04FF42F
:10305000427000F0E5FB4FF4427000F0EFFB00E03F
:1030600000BF00BF10BD10B54FF4407000F0D8FB9A
:103070004FF4407000F0E2FB10BDF0B50446164678
:103080000025002201F00F0501F0100707B13543BC
:1030900000201EE0012787401F40C7B122684FEA89
:1030A000800C0F2707FA0CF7BA43870005FA07F7D9
:1030B0003A43282904D1012787401F40676105E072
:1030C000482903D1012787401F4027612260471C00
:1030D000B8B20828DED3082022E0012787401F402D
:1030E000E7B16268A0F108074FEA870C0F2707FADB
:1030F0000CF7BA43A0F10807BF0005FA07F73A43F7
:10310000282904D1012787401F40676105E048292D
:1031100003D1012787401F4027616260471CB8B276
:103120001028DAD3F0BD01617047416170470AB1E0
:10313000016100E041617047C160704702469068DC
:10314000084008B1012070470020FCE7014688686C
:1031500080B270470246D068084008B1012070472D
:103160000020FCE70146C86880B27047F0B50A4607
:10317000002300240021002500F00046B6F1004F96
:1031800002D15A4EF16901E0584E7168C0F303450F
:1031900083B200F44016B6F5401F08D121F07061EB
:1031A000524E766826F07066504F7E6012E000F452
:1031B0008016B6F5801F06D1032606FA05F4A14352
:1031C00041F0706106E0460D360103FA06F6B143A0
:1031D00041F0706122B1460D360103FA06F6314323
:1031E00000F00046B6F1004F02D1404EF16101E01F
:1031F0003E4E7160F0BD10B500228B071C0F0F23EF
:1032000003FA04F204290EDA384B9B689343374CD7
:10321000A36023469B688C07240F00FA04F4234321
:10322000324CA3602FE008290EDA304BDB68934361
:103230002E4CE3602346DB688C07240F00FA04F46D
:1032400023432A4CE3601EE00C290EDA274B1B694E
:103250009343264C236123461B698C07240F00FAF5
:1032600004F42343214C23610DE0204B5B6993431D
:103270001E4C636123465B698C07240F00FA04F43B
:1032800023431A4C636110BD02460020174B186897
:1032900020F07F0040EA021008431860704713488E
:1032A000006840F080001149086070470F480068CE
:1032B00020F080000D49086070474FF480320A43C7
:1032C00082618161826182698269704707494968C8
:1032D00021F40001054A51601146496801435160DB
:1032E000704700000014014000F8FEBF00000140DC
:1032F00045490143454A116070472DE9F0410346B5
:103300000D46164600240027A0464048006800F4F9
:10331000E060B0F5A06F15D006DCB0F5407F18D0A6
:10332000B0F5806F19D110E0B0F5C06F06D0B0F5E0
:10333000E06F12D100274FF0040815E001274FF08D
:10334000030811E00227B8460EE003274FF00108FA
:103350000AE004274FF0000806E04FF4A060FFF7F2
:10336000C7FF0227B84600BF00BFC7F1040005FA37
:1033700000F4C8F104010F20C84030400443240188
:103380002348C45403F01F010120884059118900CB
:1033900001F1E021C1F80001BDE8F08100F01F0259
:1033A000012191401B4A431142F8231070471A4AE9
:1033B0000A400243154B1B1F1A60BFF34F8F704723
:1033C0001249091D09680143104A121D1160704716
:1033D0000E49091D096881430C4A121D116070478E
:1033E000042808D14FF0E021096941F004014FF0B1
:1033F000E022116107E04FF0E021096921F00401AA
:103400004FF0E022116170470000FA050CED00E07A
:1034100000E400E080E100E080FFFF1F10B540F213
:103420001C4000F0FDF940F21C4000F007FA10BD0E
:103430006F49096821F010016D4A11601146096851
:1034400021F0E00111601146096801431160114645
:10345000096841F01001116070476548006820F06C
:1034600010006349086070476249096821F004014F
:10347000604A116008B930BF00E020BF70475C4A65
:10348000126822F003025A4B1A601A46126802436D
:103490001A60584A126842F00402564B1A604FF004
:1034A000E0221269544B1A60544A12685A60534A17
:1034B000121D12689A60514A08321268DA604FF0A1
:1034C000E02212694E4B1A404FF0E0231A614D4A38
:1034D0004A4B80331A604C4A1B1D1A60D2174FF0BA
:1034E000E023C3F8882109B930BF02E040BF20BF04
:1034F00020BF414A12684FF0E0231A613E4A5268E9
:103500003E4B1A603C4A92684FF0E023C3F8042116
:10351000394AD268C3F80821364A126822F00402F8
:10352000344B1A6070473248006840F0020030495E
:1035300008600846006840F0040008602D480068F4
:1035400040F004002B4908604FF0E02000692C494E
:1035500008404FF0E02108616FF0080027498031F2
:1035600008606FF400704FF0E021C1F88401801210
:1035700022498831086030BF70471D48406840F4D8
:1035800080701B49486070471948406820F480707B
:103590001749486070471648006840F48070144925
:1035A000086070471248006820F480701049086075
:1035B000704701460E484068084008B10120704736
:1035C0000020FCE710B101280ED106E00849096887
:1035D00041F00401064A116007E00549096841F01D
:1035E0000801034A116000E000BF00BF70470000FF
:1035F0000070004010ED00E02802002000E100E033
:10360000040001003DF87FFFFFF8FFBF0146FA4AC2
:1036100002EB9110006801F01F0301229A40104054
:1036200008B1012070470020FCE7F0B506460024F1
:10363000002700251A2E66D005DC8EB3102E0BD085
:10364000182E70D14FE01C2E6FD0B6F5006F14D03D
:10365000B6F5106F79D134E004E01120FFF7D6FF02
:103660000546641C1DB94FF6FF708442F5D1112048
:10367000FFF7CCFF00B1012768E005E040F601004C
:10368000FFF7C4FF0546641C1DB96FF07C408442FF
:10369000F4D140F60100FFF7B9FF00B1012755E072
:1036A000FFE704E00120FFF7B1FF0546641C15B9F0
:1036B000B4F5A06FF6D10120FFF7A8FF00B10127F4
:1036C00044E005E040F60110FFF7A0FF0546641C4A
:1036D00015B9CA488442F5D140F60110FFF796FFAC
:1036E00000B1012732E004E01920FFF78FFF054603
:1036F000641C15B9C1488442F6D11920FFF786FF32
:1037000000B1012722E004E01B20FFF77FFF054600
:10371000641C15B9B9488442F6D11B20FFF776FF27
:1037200000B1012712E010E0FFE704E01D20FFF7E1
:103730006DFF0546641C15B9B0488442F6D11D20C2
:10374000FFF764FF00B1012700E000BF00BF38466B
:10375000F0BD00B5A848006840F00100A649086027
:103760000020FFF762FFA448406820F00300A24950
:10377000486008460068A24908409F49086008461A
:10378000006820F4802008600846006820F0A050FF
:103790000860084640689B490840974948604FF4D4
:1037A0007F0088600846C06A6FF31200C86200BDDF
:1037B000914A02EB9011096800F01F0301229A4020
:1037C00011438D4B03EB9012116070478A4A02EB54
:1037D0009011096800F01F0301229A409143864B23
:1037E00003EB901211607047834A02EB9011096855
:1037F00000F01F0301229A4011437F4B03EB90120C
:10380000116070477C4A02EB9011096800F01F03B9
:1038100001229A409143784B03EB9012116070475C
:10382000754A02EB9011096800F01F0301229A40CB
:103830001143714B03EB9012116070476E4A02EB1B
:103840009011096800F01F0301229A4091436A4BCE
:1038500003EB9012116070476748006A40F48030B3
:103860006549086270476448006A20F48030624904
:1038700008627047604A516821F0030141EA000282
:103880005D4B5A6070475C48406800F00C00704720
:10389000594A516821F0F00141EA0002564B5A6042
:1038A0007047554A516821F4E06141EA0002524BE9
:1038B0005A607047504A516821F4605141EA000251
:1038C0004D4B5A6070474C4A516821F0706141EA93
:1038D0000002494B5A60704702460020464B586828
:1038E000494B184042EA01031843434B5860704764
:1038F00002460020404BD86A444B184042EA01037C
:1039000018433D4BD8627047014600203A4AD06ABE
:1039100020F0F0000843D06270473749C96A21F4AB
:103920007061354AD1621146C96A0143D16270475C
:103930003149C96A21F470412F4AD1621146C96ADE
:103940000143D16270472C4A5168314A114008281E
:1039500014D2DFE800F004050607130A130B00BFBA
:1039600000BF00BF41EA803109E000BF20F0040041
:103970004FF0805242EA8032114300E000BF00BFA6
:103980001D4A516070471C4A516821F4400141EAC8
:103990000002194B5A607047174A116A21F44071AE
:1039A00041EA0002144B1A627047134AD16A21F4AB
:1039B000003141EA0002104BDA6270470E4AD16AC8
:1039C00021F4802141EA00020B4BDA6270470A4879
:1039D000406A40F080700849486270470146064AD4
:1039E00002EB9110006801F01F0301229A40104081
:1039F00080B101207047000000100240FFFF0F005F
:103A0000FFFFF6FE0C0000C0FFFFC2DFF0FFFEFF6D
:103A1000FF3FFFEF0020EDE7B64A02EB9011096887
:103A200000F01F0301229A401143B24B03EB9012A6
:103A300011607047AF4A02EB9011096800F01F0354
:103A400001229A401143AB4B03EB90121160704777
:103A5000A84A02EB9011096800F01F0301229A4066
:103A60009143A44B03EB901211607047A14A02EB03
:103A70009011096800F01F0301229A4011439D4BE9
:103A800003EB9012116070479A4A02EB901109689B
:103A900000F01F0301229A409143964B03EB9012D2
:103AA0001160704701461A2928D005DC19B3102986
:103AB0000BD0182924D120E01C2920D0B1F5006FAB
:103AC0000ED0B1F5106F1BD116E08A4A106812684B
:103AD00022F48032874B1A6040F480221A6010E092
:103AE000844A106A126A22F00102824B1A6240F084
:103AF00004021A6205E000BF00BF00BF00BF00E083
:103B000000BF00BF704701461A2928D005DC19B351
:103B100010290BD0182924D120E01C2920D0B1F580
:103B2000006F0ED0B1F5106F1BD116E0714A10680E
:103B3000126822F480326F4B1A6020F480221A60DF
:103B400010E06C4A106A126A22F00102694B1A6294
:103B500020F004021A6205E000BF00BF00BF00BFF2
:103B600000E000BF00BF70476248006840F40020DA
:103B70006049086070475F48006820F400205D4994
:103B8000086070475B4A116821F0F80100F01F02DD
:103B900041EAC202574B1A60704700F007005549CE
:103BA000486370472DE9F14F8DB000200B9052A073
:103BB00090E8004CC068CDE905BECDF810A0079094
:103BC0000FF2381ADAE9000ACDE9020A0FF22C1ACC
:103BD000DAE9000ACDE9000A46484068C0F38100EE
:103BE0000C900C9820B1012804D002284DD103E09C
:103BF00045494CE045494AE03E48406800F4803978
:103C0000B9F5803F26D1414B3A48C06A00F4803074
:103C10000A900A98B0F5803F12D13648C06AC0F3C6
:103C20000310401C08903348C06AC0F30320871C6F
:103C3000112F00D114270898B3FBF0F000FB07F315
:103C40002C48C06A00F00F00401C09900998B3FB93
:103C5000F0F300E02E4B27484068C0F3834225482C
:103C6000406800F0005008B142F010020F2A01D263
:103C7000921C00E0521C03FB02F10F2A04D103EB5B
:103C80004300400000EB530101E01F4900BF00BFAB
:103C900018484068C0F3031504A8465D21FA06F4ED
:103CA00014484068C0F3022502A8465D24FA06FCC9
:103CB00010484068C0F3C2251DF8056024FA06F8D4
:103CC0000D9830B1012806D0022806D003280AD169
:103CD00006E00B9108E00B9406E0CDF82CC003E061
:103CE000CDF82C8000E000BF00BF0B980EB0BDE8FF
:103CF000F08F0000001002400000000000000000F3
:103D0000010203040607080900127A0040787D01C9
:103D100000093D004848006840F01000464908602E
:103D200070474548006820F010004349086070471C
:103D300000B50246FFF7EEFF100C3F491431086052
:103D400090B2091D0860FFF7ECFF00BD00B5024608
:103D5000FFF7E0FFC2F303403749091D086090B246
:103D6000091D0860FFF7DDFF00BD00BF3248006895
:103D700000F020000028F9D070472F48006820F09C
:103D800008002D49086000BF2B48006800F00800BB
:103D90000028F9D0704700B50246FFF7BBFF100CB2
:103DA00025491C31086090B2091D0860FFF7B9FF72
:103DB00000BD0020204918310868091F096840EA41
:103DC0000140704700201C490C3109680907080BA5
:103DD00019491031096808437047014616480068C0
:103DE000084008B1012070470020FCE7124909682B
:103DF0008143114A1160704701460F48006808402E
:103E000008B1012070470020FCE70B490968814395
:103E1000094A116070470849091F09680143064AA9
:103E2000121F116070470449091F09688143024A43
:103E3000121F1160704700000428004010B50446AE
:103E4000FE49601A8C4244D00CDCB4F1804F1CD087
:103E5000FB48204410B3B0F5806F28D0B0F5006F58
:103E600052D12DE0B0F5806F3CD0B0F58E3F03D03D
:103E7000B0F5923F48D13EE040F20B30FFF7D0FC66
:103E800040F20B30FFF7DAFC3FE04FF48060FFF7C1
:103E9000C7FC4FF48060FFF7D1FC36E040F20140F0
:103EA000FFF7BEFC40F20140FFF7C8FC2DE040F2F6
:103EB0000240FFF7B5FC40F20240FFF7BFFC24E0F0
:103EC00040F20340FFF7ACFC40F20340FFF7B6FCC2
:103ED0001BE040F20440FFF7A3FC40F20440FFF770
:103EE000ADFC12E040F20540FFF79AFC40F20540BD
:103EF000FFF7A4FC09E040F20D30FFF791FC40F21F
:103F00000D30FFF79BFC00E000BF00BF10BD00219B
:103F10000180418081804FF6FF71816000218181A5
:103F2000817370470A888262C64A904221D0B0F1FC
:103F3000804F1ED0C24A524290421AD0C24A90428A
:103F400017D0C24A904214D0C14A904211D0C14AFF
:103F500090420ED0C04A90420BD0C04A904208D046
:103F6000BF4A904205D0BF4A904202D0BE4A90421A
:103F70000FD1026822F07002026002688B7803F0B1
:103F800060031A43026002680B7903F010031A43BE
:103F900002608A68C262A94A90420CD0B34A904239
:103FA00009D0026822F44072026002688B8903F42F
:103FB00040731A430260A34A904202D0A44A90423E
:103FC00001D18A7B0263426942F00102426170477B
:103FD000016841F0010101607047016821F00101B1
:103FE00001607047016841F080010160704701681D
:103FF00021F0800101607047016821F00201016039
:104000007047016841F0020101607047026822F0C8
:104010006002026002680A4302607047016821F092
:10402000100101607047016841F0100101607047A4
:104030008162012A03D1436943F001034361704760
:1040400001637047C16270474162704701460020BA
:10405000486A7047014600208A6A90B27047082972
:1040600004D1026842F00802026004E019B9026853
:1040700022F0080202607047042904D1026842F06D
:104080000402026004E019B9026822F0040202602E
:104090007047C2680A43C2607047C2688A43C26000
:1040A0007047082904D1426842F00802426004E0E7
:1040B00019B9426822F008024260704710B5836C5B
:1040C00041F61F74A3438364836C41EA02042343D3
:1040D000836410BD42690A43426170470021018038
:1040E00041808180C18001814181818170470A883E
:1040F0004B881A438B881A43CB881A430B891A437F
:104100004B891A438B891A4342647047416C41F4CE
:10411000805141647047416C21F480514164704783
:10412000416C41F4804141647047416C21F480410D
:1041300041647047012904D1426C42F40042426458
:1041400003E0426C22F4004242647047012904D12A
:10415000426842F00102426003E0426822F001023C
:104160004260704721B9426822F00402426005E0D3
:10417000042903D1426842F00402426070470021E2
:10418000018041808180C18001814181704710B5EB
:1041900031B101293FD002296AD0032969D1D9E080
:1041A000036A23F001030362836923F0030383613D
:1041B000036A148823430362036A23F00203036241
:1041C000036A9488234303621E4B984202D0204B1B
:1041D00098421FD1036A23F004030362036A5488E0
:1041E00023430362036A23F008030362036AD4884B
:1041F00023430362436823F4807343604368148954
:1042000023434360436823F4007343604368548945
:1042100023434360C5E0036A23F01003036283690C
:1042200023F440738361036A148843EA041303622E
:10423000036A23F020030362036A1BE000100040BE
:1042400000FCFFBF002C014000080040000C0040B3
:1042500000340140004C0140005001400054014036
:1042600000180040001C00400020004000140040E6
:104270002FE095E0948843EA04130362F84B9842D8
:1042800002D0F84B984223D1036A23F04003036223
:10429000036A548843EA04130362036A23F0800329
:1042A0000362036AD48843EA04130362436823F475
:1042B000806343604368148943EA8403436043682E
:1042C00023F4006343604368548943EA84034360F2
:1042D00067E0036A23F480730362C36923F0030376
:1042E000C361036A148843EA04230362036A23F464
:1042F00000730362036A948843EA04230362D84B81
:10430000984202D0D74B984223D1036A23F48063AA
:104310000362036A548843EA04230362036A23F4B2
:1043200000630362036AD48843EA04230362436898
:1043300023F4805343604368148943EA04134360C1
:10434000436823F4005343604368548943EA0413E9
:10435000436026E0036A23F480530362C36923F4B5
:104360004073C361036A148843EA04330362036A37
:1043700023F400530362036A948843EA043303621C
:10438000B74B984202D0B74B984208D1436823F408
:10439000804343604368148943EA8413436000E028
:1043A00000BF00BF10BD31B101290CD0022913D0CC
:1043B000032922D118E0836923F0700383618369A4
:1043C000134383611AE0836923F4E04383618369C3
:1043D00043EA0223836111E0C36923F07003C361E0
:1043E000C3691343C36109E0C36923F4E043C361B4
:1043F000C36943EA0223C36100E000BF00BF704706
:1044000031B1012906D0022906D0032908D105E0DF
:10441000426306E0826304E0C26302E0026400E0FB
:1044200000BF00BF704731B101290CD0022913D061
:10443000032922D118E0836923F00803836183698B
:10444000134383611AE0836923F400638361836902
:1044500043EA0223836111E0C36923F00803C361C7
:10446000C3691343C36109E0C36923F40063C361F3
:10447000C36943EA0223C36100E000BF00BF704785
:1044800031B101290CD0022913D0032922D118E01F
:10449000836923F0040383618369134383611AE012
:1044A000836923F480638361836943EA0223836120
:1044B00011E0C36923F00403C361C3691343C361FB
:1044C00009E0C36923F48063C361C36943EA02233B
:1044D000C36100E000BF00BF704731B101290CD0BB
:1044E000022913D0032922D118E0836923F0800325
:1044F00083618369134383611AE0836923F4004372
:104500008361836943EA0223836111E0C36923F075
:104510008003C361C3691343C36109E0C36923F422
:104520000043C361C36943EA0223C36100E000BFE3
:1045300000BF704731B101290CD0022913D00329E3
:1045400023D119E0036A23F002030362036A1343D1
:1045500003621BE0036A23F020030362036A43EA59
:104560000213036212E0036A23F400730362036A16
:1045700043EA0223036209E0036A23F4005303625F
:10458000036A43EA0233036200E000BF00BF7047E2
:1045900021B101290AD002291AD110E0036A23F0BF
:1045A00008030362036A1343036212E0036A23F001
:1045B00080030362036A43EA0213036209E0036AA9
:1045C00023F400630362036A43EA0223036200E008
:1045D00000BF00BF704731B101290CD0022913D0B0
:1045E000032923D119E0036A23F001030362036A5C
:1045F000134303621BE0036A23F010030362036AA0
:1046000043EA0213036212E0036A23F48073036235
:10461000036A43EA0223036209E0036A23F4805336
:104620000362036A43EA0233036200E000BF00BF93
:10463000704721B101290AD002291ED114E0036A72
:1046400023F004030362036A1343036216E0036A60
:1046500023F040030362036A43EA021303620DE09E
:10466000002C014000340140036A23F4806303629C
:10467000036A43EA0223036200E000BF00BF704701
:10468000002101800121418000218180C18070478B
:1046900031B101290CD0022913D0032922D118E00D
:1046A000836923F00C0383618369134383611AE0F8
:1046B000836923F440638361836943EA022383614E
:1046C00011E0C36923F00C03C361C3691343C361E1
:1046D00009E0C36923F44063C361C36943EA022369
:1046E000C36100E000BF00BF704770B504460E46CE
:1046F000154636B1012E26D0022E48D0032E7DD18C
:1047000068E0206A20F001002062206A20F00A00A0
:104710002062206A298808432062A06920F00300F3
:10472000A061A06969880843A061A06920F0F00039
:10473000A061A069E98840EA0110A061206A40F008
:10474000010020626DE0206A20F010002062206AE3
:1047500020F0A0002062206A298840EA011020622F
:10476000A06920F44070A061A069698840EA012036
:10477000A061A06920F47040A061A069E98840EAC6
:104780000130A061206A40F01000206249E0206AF8
:1047900020F480702062206A20F420602062206A69
:1047A000298840EA01202062E06920F00300E061EE
:1047B000E06969880843E061E06920F0F000E061A9
:1047C000E069E98840EA0110E061206A40F4807005
:1047D000206226E0206A20F480502062206A20F4C3
:1047E00000502062206A298840EA01302062E06996
:1047F00020F44070E061E069698800E010E040EA80
:104800000120E061E06920F47040E061E069E9883E
:1048100040EA0130E061206A40F48050206200E00C
:1048200000BF00BFAA8831462046FFF731FF70BDA8
:104830000246002031B1012906D0022906D0032901
:1048400008D105E0506B06E0906B04E0D06B02E00D
:10485000106C00E000BF00BF70472DE9F041044636
:104860000E4615460027B846288808B9022700E0FA
:1048700000276888012802D14FF0020801E04FF0BC
:104880000108002E4CD1206A20F001002062206A2D
:1048900020F00A002062206A298808432062A0696B
:1048A00020F00300A061A06969880843A061A069A5
:1048B00020F0F000A061A069E98840EA0110A06141
:1048C000206A40F001002062AA8800212046FFF7FC
:1048D000DFFE206A20F010002062206A20F0A00095
:1048E0002062206A40EA07102062A06920F440702C
:1048F000A061A06940EA0820A061A06920F470408E
:10490000A061A069E98840EA0130A061206A40F016
:1049100010002062AA8801212046FFF7B9FE4CE072
:10492000206A20F010002062206A20F0A00020629F
:10493000206A298840EA01102062A06920F44070B2
:10494000A061A069698840EA0120A061A06920F403
:104950007040A061A069E98840EA0130A061206A46
:1049600040F010002062AA8801212046FFF790FE47
:10497000206A20F001002062206A20F00A002062F4
:10498000206A38432062A06920F00300A061A0697A
:1049900040EA0800A061A06920F0F000A061A069D1
:1049A000E98840EA0110A061206A40F0010020621D
:1049B000AA8800212046FFF76BFEBDE8F081802920
:1049C00004D1426842F08002426004E019B94268B2
:1049D00022F0800242607047826822F0700282609A
:1049E00082680A4382607047426822F07002426027
:1049F00042680A4342607047826822F00702826080
:104A000082680A4382607047802904D1826842F03C
:104A10008002826004E019B9826822F0800282601C
:104A2000704730B5846824F43F448460846841EA68
:104A300002052C438460846844EA0324846030BD0A
:104A400030B5846824F00704846084680C43846073
:104A5000846940F20335AC438461846940F20115F6
:104A60002C438461046A24F00A040462046A24F07A
:104A7000A0040462046A42EA03152C43046230BDB8
:104A8000816821F007018160704710B503460C462C
:104A900021461846FFF7A0FF986820F007009860AD
:104AA000986840F00700986010BD70B504460E4647
:104AB0001546602E20D1206A20F010002062206A66
:104AC00020F0A0002062206A40EA05102062A06960
:104AD00020F44070A061A06940F48070A061A069DA
:104AE00020F47040A061A06940EA0330A061206A10
:104AF00040F0100020621EE0206A20F001002062D9
:104B0000206A20F00A002062206A28432062A069FF
:104B100020F00300A061A06940F00100A061A0693D
:104B200020F0F000A061A06940EA0310A061206AB3
:104B300040F00100206231462046FFF74DFFA0689B
:104B400020F00700A060A06840F00700A06070BDE2
:104B5000F0B504460D4616461F463B4632462946EA
:104B60002046FFF75EFFA06820F07700A060A068F5
:104B700040F07700A060F0BDF0B504460D46164643
:104B80001F463B46324629462046FFF74AFFA068AB
:104B900040F48040A060F0BD816821F480418160D4
:104BA0007047C2680A43C2607047C2688A43C260E5
:104BB00070470246D06800EA01031069084010B14E
:104BC0000BB1012070470020FCE7CA430261704727
:104BD00002461069084008B1012070470020FCE738
:104BE000CA4302617047000010B50446EA49601AE2
:104BF0008C4228D006DCE948204490B1B0F5806FA3
:104C000033D117E0B0F5806F26D0B0F56C4F2CD1C2
:104C100040F20E30FEF704FE40F20E30FEF70EFEBC
:104C200024E040F21140FEF7FBFD40F21140FEF798
:104C300005FE1BE040F21240FEF7F2FD40F212408A
:104C4000FEF7FCFD12E040F21340FEF7E9FD40F2F2
:104C50001340FEF7F3FD09E040F21440FEF7E0FDDB
:104C600040F21440FEF7EAFD00E000BF00BF10BDB7
:104C70002DE9F04704460D460027B846B946002600
:104C8000C549601A8C421CD006DCC448204470B16F
:104C9000B0F5806F1FD10FE0B0F5806F16D0B0F582
:104CA0006C4F18D10320FEF77DFF074614E0022069
:104CB000FEF778FF07460FE00220FEF773FF074676
:104CC0000AE00220FEF76EFF074605E00220FEF72D
:104CD00069FF074600E000BF00BF07EB5500B0FBCF
:104CE000F5F64FF6F07006EA000806F00F0948EAFC
:104CF0000900A060BDE8F087C26822F4C062C2600B
:104D0000C2680A43C2607047C26822F48052C2601F
:104D1000C2680A43C2607047026922F440520261CD
:104D200002690A4302617047C16841F40051C160E1
:104D30007047C16821F40051C16070470A460021E4
:104D4000C16821F008011143C16070470A46002183
:104D5000C16821F004011143C1607047C1F308022A
:104D60004260704701464868C0F308007047026916
:104D700022F00F020261026901F00F031A4302617F
:104D80007047C16841F00201C1607047C16821F0FD
:104D90000201C1607047C26822F40062C260C2684A
:104DA0000A43C2607047016941F480410161704764
:104DB000016921F4804101617047026922F02002FB
:104DC0000261026901F020031A4302617047C16861
:104DD00041F00101C1607047416941F00801416142
:104DE0007047416921F0080141617047016941F450
:104DF000006101617047016921F400610161704740
:104E000070B50C460021016921F4E06104F480755D
:104E100002F40076354303F480663543294301618B
:104E200070BD826922F47F42826182694FF47F43C0
:104E300003EA01231A4382617047416941F020016E
:104E400041617047416921F020014161704741692A
:104E500041F0100141617047416921F01001416149
:104E60007047416941F0020141617047416921F099
:104E7000020141617047826922F0FF02826182690A
:104E80000A4382617047426922F00402426142692A
:104E900001F004031A43426170470A460021416948
:104EA00021F480711143416170470A460021416934
:104EB00021F400711143416170470A4600214169A4
:104EC00021F040011143416170470A4600214169C8
:104ED00021F0800111434161704710B5024602EB99
:104EE0009110006801F01F040123A340184008B18D
:104EF000012010BD0020FCE710B500EB91121268F4
:104F000001F01F040123A3409A4300EB91131A60A0
:104F100010BD10B5C1F38912825801F01F0401239E
:104F2000A3401A43C1F38913C25010BD10B5C1F399
:104F30008912825801F01F040123A3409A43C1F350
:104F40008913C25010BD70B5024600230024C1F37E
:104F50008910105801F01F060125B54000EA05032D
:104F600002EB91500068C1F304460125B54000EA08
:104F7000050414B10BB1012070BD0020FCE710B591
:104F800000EB91521268C1F304440123A3409A43F9
:104F900000EB91531A6010BD004C004000BCFFBFF5
:104FA0000648804706480047FEE7FEE7FEE7FEE7C3
:104FB000FEE7FEE7FEE7FEE7FEE7FEE773200008F8
:104FC000510100082DE9F05F0546002092469B46FE
:104FD00088460646814640241BE02846414647460F
:104FE000224600F098F953465A46C01A914110D310
:104FF00011461846224600F07FF92D1A67EB01088A
:105000004F4622460120002100F076F917EB0009F7
:105010004E41201EA4F10104DFDC484631462A46F9
:105020004346BDE8F09F2DE9FE4F804681EA03002C
:10503000C00F0C46009021F0004123F00045B8EB72
:105040000200A94105D24046214690461C460B4627
:10505000024623F00040104347D0270DC7F30A0053
:10506000C3F30A510290401A019040286BDAC3F34F
:10507000130040F4801B0098924620B10023D2EB2D
:10508000030A63EB0B0B01985946C0F140025046EE
:1050900000F032F906460D4650465946019A00F096
:1050A0004AF910EB08006141002487EA115284EAB2
:1050B000E7731A4340D0009A62B3019A012A4FEA7B
:1050C000075215DC001B61EB02014FF0004202EABF
:1050D0000752CDE90042001C41F5801132462B46B3
:1050E00000F04AF903B0BDE8F08F40462146F9E7E9
:1050F000001B61EB0201001C41F5801300185B41AD
:105100002018A2F5001747EB030140EAD570B61945
:105110006D4111E06D084FEA360645EAC0754FEA69
:105120000752001B61EB0201001C41F58011490888
:105130004FEA30000019514132462B4603B0BDE81A
:10514000F04F00F00AB90098012240000023D0EB94
:10515000020263EBE073009821464FEAE074B8EB7B
:10516000000061EB0401E9E783F000435BE781F0B5
:10517000004158E72DE9F04D81EA030404F0004BAB
:1051800021F0004514464FF0000A23F0004150EA98
:10519000050220D054EA01021DD0C5F30A57024689
:1051A000C5F31303C1F31300C1F30A5640F480158D
:1051B00043F48013A7EB0608101BD64608F2FD380F
:1051C00073EB050002D308F1010801E092185B417E
:1051D000B8F1000F03DA00200146BDE8F08D002091
:1051E0004FF48011064684460EE0171B73EB05074B
:1051F00005D3121B63EB050306434CEA010C490877
:105200004FEA300092185B4150EA0107EDD152EAB3
:10521000030012D082EA040083EA0501084305D0A6
:10522000101BAB4106D20122002306E000224FF002
:10523000004302E06FF0010253101AEB06004CEB42
:10524000085110EB0A0041EB0B01BDE8F04D00F0F6
:1052500084B80EB540F2334102910021CDE900112E
:105260000A460B4600F088F803B000BD30B5041EB6
:1052700071F1000404DB4FF00044404264EB010193
:10528000141E73F1000405DB1C464FF0004352422C
:1052900063EB04038B4208BF824230BD30B5041E6D
:1052A00071F1000404DB4FF00044404264EB010163
:1052B000141E73F1000405DB1C464FF000435242FC
:1052C00063EB0403994208BF904230BD30B50B46F2
:1052D000014600202022012409E021FA02F59D4226
:1052E00005D303FA02F5491B04FA02F52844151EFA
:1052F000A2F10102F1DC30BD202A04DB203A00FAE1
:1053000002F1002070479140C2F1200320FA03F31C
:10531000194390407047202A04DB203A21FA02F01A
:105320000021704721FA02F3D040C2F120029140DF
:10533000084319467047202A06DBCB17203A41FA6A
:1053400002F043EAE07306E041FA02F3D040C2F112
:105350002002914008431946704710B5141E73F19E
:10536000000408DA401C41F1000192185B411A4325
:1053700001D120F0010010BD2DE9F04D92469B4671
:1053800011B1B1FA81F202E0B0FA80F22032904617
:10539000FFF7B2FF04460F4640EA0A0041EA0B015C
:1053A00053465A46084313D0114653EA010019D018
:1053B000C8F140025046FFF7AEFF05460E46504684
:1053C00059464246FFF798FF084305D0012004E004
:1053D00020463946BDE8F08D0020054346EAE076D8
:1053E0002C4337430A986305E40AA0EB0800002227
:1053F000FD0A44EA47540A3002D500200146E9E795
:10540000010510196941DDE9084500196941BDE848
:10541000F04DA2E72DE9FE4F81EA030404F00044B9
:1054200021F0004100944FF0000B23F0004350EABC
:1054300001045ED052EA03045BD0C3F30A54C1F303
:105440000A552C44A4F2F3340194A0FB0254C1F396
:10545000130141F48011C3F3130343F4801301FBE0
:10546000024400FB034E840A970A44EA815447EA47
:105470008357A4FB076802958D0A05FB07854FEA51
:10548000932C04FB0C542705029D4FEA065847EA6B
:105490001637B5EB08056EEB070C870E920E47EA40
:1054A000811742EA8312A7FB0201B6EB0B0164EB02
:1054B00000042B0D43EA0C335E1844EB1C50DA4613
:1054C0005146E7FB0201C5F313044FEA0B3343EAED
:1054D00014534FEA0432019C43EA0603A4F10C047E
:1054E0000294009CCDE900B4FFF746FF03B0BDE88D
:1054F000F08F00200146F9E770B521F00043034327
:105500000CD0C1F30A550024D5EB040564EB040369
:10551000D617AD1AB34102DB0020014670BD20183A
:1055200041EB025170BD0EB5C10F80EAE070084436
:10553000CA07002140F233438DE80E000A460B46AD
:10554000FFF71AFF03B000BDC1F30A52C1F3130104
:1055500040F2FF3341F480119A4202DA0020014602
:10556000704740F233439A42A2F2334202DC524285
:10557000FFF7D1BEFFF7C0BE064C074D06E0E0685E
:1055800040F0010394E8070098471034AC42F6D38A
:10559000FAF7E2FD30630008506300080FB4084BCF
:1055A00010B504A902AA039800F04AF9044602A91A
:1055B000002000F0C8FC204610BC5DF814FB000081
:1055C000475F00082DE9F0414F1E00EBC70104467C
:1055D000D1E9000115461E4637F006020DD02A46D5
:1055E0003346FFF717FF7F1E04EBC703D3E9002301
:1055F000FFF719FD37F00602F1D1022F25D0042F55
:1056000013D0062F18BFBDE8F0812A463346FFF7B6
:1056100001FFD4E90A23FFF706FD2A463346FFF7C8
:10562000F9FED4E90823FFF7FEFC2A463346FFF7CC
:10563000F1FED4E90623FFF7F6FC2A463346FFF7CE
:10564000E9FED4E90423FFF7EEFC2A463346FFF7D0
:10565000E1FED4E90223FFF7E6FC2A463346FFF7D2
:10566000D9FED4E90023BDE8F041FFF7DCBC00001F
:105670000022134610460149FFF77CBD0000F03FB1
:105680000122FFF739BF0022134610461146FFF7EB
:1056900071BD02E008C8121F08C1002AFAD1704784
:1056A0007047002001E001C1121F002AFBD17047A2
:1056B00001490860704700009C0000202DE9FF5F51
:1056C00082B00021DDE90430020DDDF840B0034373
:1056D00018D044F61050A2F2FF324243151411982C
:1056E00001281FD0A5EB0B00401C5FEA000A4FF019
:1056F00000064E4FDFF83891B046504615D5CAF136
:10570000000413E0119801244AA3012801D16FEA93
:105710000B010298119AC0E90031C0E9024206B0BB
:10572000BDE8F09FCBF10000DFE704460021404ACE
:10573000491842EB0450CDE9001012E0E00707D011
:1057400032463B4640464946FFF764FE804689465E
:1057500032463B4610461946FFF75CFE06460F46AA
:105760006410002CEAD1DDE90401DDE90023BAF17F
:10577000000F06DAFFF74EFE42464B46FFF74AFEA1
:1057800005E0FFF7F7FC42464B46FFF7F3FC044603
:105790000E460022284BFFF781FD03D84FF0FF3063
:1057A000014607E00022254B20463146FFF73BFC2F
:1057B000FFF7CAFE102409E0002C0ADB0A220023AE
:1057C000FFF700FC039B30321A55641E50EA0102B9
:1057D000F2D1641C039AC4F111031444119A012AF2
:1057E00003D0012208430DD10AE0084304D0002071
:1057F0004FF0110B119072E7A3EB0B056D1E0DE03E
:105800005B4504DD4FF0000205F1010504E003DA19
:105810004FF00002A5F10105002AECD00298119981
:10582000C0E90231C0E9004579E7000000001440FA
:105830000000F03F300000000000F0430000E03FB7
:105840002DE9FF4F95B09A46884606460025EEE1C1
:10585000252877D100242746F94A0121039400E046
:10586000044316F8013F203B01FA03F01042F7D140
:1058700030782A2811D06FF02F033078A0F1300251
:10588000092A16D8039A44F0020402EB820203EBC1
:1058900042021044761C0390EFE758F8042B039261
:1058A000002A03DA504244F40054039044F0020406
:1058B000761C30782E2816D116F8010F44F0040417
:1058C0002A280DD06FF02F023078A0F13003092B79
:1058D00009D807EB870302EB4303C718761CF3E7ED
:1058E00058F8047B761C30786C280FD006DC4C28E6
:1058F00017D068280DD06A2814D104E0742810D07D
:105900007A280FD10DE044F400140AE044F4801426
:1059100001E044F440147278824202D104F580140C
:10592000761C761C307866280BD013DC582877D08C
:1059300009DC002875D04528F6D04628F4D0472841
:105940001AD193E118E0632835D0642879D065280E
:1059500012D18BE1702873D008DC6728F1D0692858
:105960006FD06E280DD06F2806D1ACE073282CD0F4
:10597000752874D0782853D05246179990476D1CDB
:1059800054E1C4F30250022809D003280DD0D8F8FE
:10599000001004280DD00D6008F1040846E1D8F885
:1059A0000010EA17C1E90052F6E7D8F800100D80A0
:1059B000F2E70D70F0E718F8041B8DF800100020D6
:1059C0008DF80100EB46012003E058F804BB4FF0CE
:1059D000FF3061074FF0000102D40DE009F1010131
:1059E0008946B9420FDA8145F8DB1BF80910002916
:1059F000F4D108E009F1010189468142FADB1BF884
:105A000009100029F6D103985346A0EB0907214657
:105A10003846179A00F080FA284400EB090507E0A1
:105A200044E008E10DE01BF8010B5246179990473E
:105A3000B9F10109F7D2534621463846179AF2E0E8
:105A400039E00A21C4F302524FF0000B0091022A00
:105A500006D058F8040BC117032A09D00AE023E046
:105A600008F1070020F00702F2E80201904605E085
:105A700000B2C117042A01D140B2C117002906DAC9
:105A80000A460021404261EB02012D2202E022057C
:105A900004D52B228DF80420012203E0E20701D077
:105AA0002022F7E7914657E00A2100E010214FF04D
:105AB000000B00910BE010214FF0000B44F00404A8
:105AC0000827009103E008204FF0000B0090C4F37A
:105AD0000252022A05D058F8040B0021032A08D0EC
